:100000000A128A11E72F00308A000408840A820746
:1000100000345334453454345F3443344D343A342B
:100020000034523465346134633468346534643484
:0A003000003443346D343D340034D5
:100108000134003464008001840A040603190034B1
:10011800040687280130F0020030031CF103F102C5
:10012800700A031D9B28710A031D9B289C288E2892
:100138000800F4007408831203178D008316031750
:100148008C130C14831203170C08F200F3017208C5
:10015800F0007308F100080083120313AB002B189A
:10016800B628BA28831203130914BD28831203136F
:1001780009102A0888000A128A11DE200A128A1138
:100188000800F1007108831203178D0070088C00B5
:10019800831603170C1555308D00AA308D008C146A
:1001A8000C150C11831203130D1EDB28DC28D6282E
:1001B8000D1208008312031389146430F000003014
:1001C800F1000A128A118E200A128A11831203136F
:1001D80089106430F0000030F1000A128A118E2074
:1001E8000A128A11080083120313AC0011292C0883
:1001F80084000A128A1103200A128A11FF007F085C
:10020800AA0001300A128A11B0200A128A1101309C
:10021800FF007F0883120313AC072C0884000A121E
:100228008A1103200A128A11003A031D1C291D296C
:10023800FB2808000030FC000030FB000030FA000A
:100248000030F900701C29292A2941297408F90766
:10025800750803110318013E03193329FA077608B4
:1002680003110318013E03193A29FB077708031104
:100278000318013E03194129FC070130F800031057
:10028800F40DF50DF60DF70DF80B432901300310A9
:10029800F30CF20CF10CF00CFF3E031D4B29730814
:1002A800720471047004031D5A295B2926297C08ED
:1002B800F3007B08F2007A08F1007908F0000800E2
:1002C80083120313230822042104200403196D292F
:1002D8006E29B129A901A90A7E290130A8000310B5
:1002E800A00DA10DA20DA30DA80B73290130FF00CD
:1002F8007F08A907A31F81298229712923082702BA
:10030800031D902922082602031D90292108250291
:10031800031D902920082402031C93299429A2294B
:100328002008A4022108031C210FA5022208031C8F
:10033800220FA6022308031C230FA7020130031073
:10034800A30CA20CA10CA00CFF3E031DA329013095
:10035800A902031DB029B12982292708A30026086C
:10036800A2002508A1002408A0000800FD01FB1F29
:10037800BE29BF29C629FA09FB09FA0A0319FB0A8B
:10038800FD01FD0AF91FC929CA29CF29F809F90968
:10039800F80A0319F90A780879040319D429D52920
:1003A800042AFC01FC0AE32901300310F80DF90DB9
:1003B800FF3E031DD9290130FF007F08FC07F91F04
:1003C800E629E729D82979087B02031DED29780851
:1003D8007A02031CF029F129F7297808FA0279082A
:1003E800031CFB03FB0201300310F90CF80CFF3E61
:1003F800031DF8290130FC02031D032A042AE729FA
:100408007D080319082A092A0E2AFA09FB09FA0A9B
:100418000319FB0A7B08F9007A08F8000800003085
:10042800FC000030FB000030FA000030F9007308CF
:100438007204710470040319222A232A702AFD0108
:10044800FD0A332A0130F8000310F00DF10DF20D0A
:10045800F30DF80B282A0130FF007F08FD07F31F72
:10046800362A372A262A0130F8000310F90DFA0D2A
:10047800FB0DFC0DF80B392A73087702031D4E2A71
:1004880072087602031D4E2A71087502031D4E2A52
:1004980070087402031C512A522A612A7008F40257
:1004A8007108031C710FF5027208031C720FF60223
:1004B8007308031C730FF702791401300310F30C4F
:1004C800F20CF10CF00CFF3E031D622A0130FD0214
:1004D800031D6F2A702A372A7C08F3007B08F20074
:1004E8007A08F1007908F0000800F501F11F7D2A6B
:1004F8007E2A852AF009F109F00A0319F10AF501A3
:10050800F50AF31F882A892A922AF209F309F20ABE
:100518000319F30A0130FF007F08F506F601F70119
:10052800700871040319992A9A2AD12AF401F40A45
:10053800A82A01300310F00DF10DFF3E031D9E2A7D
:100548000130FF007F08F407F11FAB2AAC2A9D2A6F
:1005580001300310F60DF70DFF3E031DAD2A71089B
:100568007302031DB92A70087202031CBC2ABD2A33
:10057800C42A7008F2027108031CF303F30276140C
:1005880001300310F10CF00CFF3E031DC52A0130A9
:10059800F402031DD02AD12AAC2A75080319D52ADA
:1005A800D62ADB2AF609F709F60A0319F70A7708A3
:1005B800F1007608F0000800831203138601890110
:1005C8008501870188018316031389018801033097
:1005D8008700703086000330850083160317890171
:1005E800880107308312031390008E018F01383081
:1005F800FF007F08AA0000300A128A11B0200A12F0
:100608008A110E30FF007F0883120313AA000030FE
:100618000A128A11B0200A128A1183120313AA013E
:10062800AA0A00300A128A11B0200A128A1101306F
:1006380083120313B4000030B50000300A128A1187
:100648009D200A128A11700883120313B6007108DC
:10065800B7000030B71BFF30B800B9008030FF008A
:100668007F08AA0000300A128A11B0200A128A11E3
:1006780001300A128A11F7200A128A110030F30099
:100688000030F2000030F1006430F00083120313F0
:100698003908F7003808F6003708F5003608F4007E
:1006A8000A128A1113220A128A117008303EFF00BA
:1006B8007F0883120313AA0001300A128A11B0209E
:1006C8000A128A11003083120313A3000030A2001B
:1006D8000030A1000A30A0000030F3000030F20022
:1006E8000030F1000A30F0003908F7003808F60049
:1006F8003708F5003608F4000A128A1113220A1284
:100708008A11730883120313A7007208A6007108E0
:10071800A5007008A4000A128A1164210A128A111D
:10072800831203132008303EFF007F08AA0001301F
:100738000A128A11B0200A128A1100308312031398
:10074800A3000030A2000030A1000A30A000390840
:10075800A7003808A6003708A5003608A4000A1222
:100768008A1164210A128A11831203132008303E69
:10077800FF007F08AA0001300A128A11B0200A126D
:100788008A1183120313051CCA2BCB2BD12B0430DF
:1007980085060518D02BD12BCD2B851CD42BD52B1A
:1007A800E22B0030B9000030B8000030B70000304C
:1007B800B6000A128A11B0240A128A110030831274
:1007C80003130F02273003190E02031CEC2BED2B29
:1007D800F52B0130C2070318C30A0030C3078E0186
:1007E8008F0134033504031DFA2BFB2B0F2CC0306B
:1007F800FF007F08AA0000300A128A11B0200A12EE
:100808008A1111300A128A11F7200A128A118312EA
:100818000313B401B501C330FF007F08AA000030FC
:100828000A128A11B0200A128A116430F0000030CE
:10083800F100831203134308F3004208F2000A127E
:100848008A1179220A128A117008303EFF007F0847
:1008580083120313AA0001300A128A11B0200A1267
:100868008A110A30F8000030F9000A30F000003030
:10087800F100831203134308F3004208F2000A123E
:100888008A1179220A128A117108FB007008FA008D
:100898000A128A11BA210A128A117808303EFF001A
:1008A8007F0883120313AA0001300A128A11B020AC
:1008B8000A128A110A30F8000030F9008312031373
:1008C8004308FB004208FA000A128A11BA210A12E8
:1008D8008A117808303EFF007F0883120313AA00AC
:1008E80001300A128A11B0200A128A1183120313E6
:1008F8004208B0004308B1000030B11BFF30B2001D
:10090800B30039083306031D932C38083206031D3B
:10091800932C37083106031D932C36083006031D27
:10092800962C972CC52B05118E018F01C201C3018E
:10093800C830FF007F08AA0000300A128A11B020D0
:100948000A128A1109300A128A11F7200A128A112A
:10095800C52B0A128A110028D02F01308600061EE6
:10096800B62CB72CF42C0130AC000030AD000030B0
:10097800AE000030AF003908F3003808F20037083D
:10098800F1003608F0000030F7000030F6000030C3
:10099800F5000A30F4000A128A111E210A128A117F
:1009A800700883120313AC0771080318710FDD2C4C
:1009B800DE2CAD0772080318720FE32CE42CAE0787
:1009C80073080318730AAF072F08B9002E08B80078
:1009D8002D08B7002C08B600061AF32CF42CF02CBE
:1009E800861EF72CF82C352D0230AC000030AD00F7
:1009F8000030AE000030AF003908F3003808F200CC
:100A08003708F1003608F0000030F7000030F60033
:100A18000030F5000A30F4000A128A111E210A1269
:100A28008A11700883120313AC0771080318710F39
:100A38001E2D1F2DAD0772080318720F242D252DAA
:100A4800AE0773080318730AAF072F08B9002E08FA
:100A5800B8002D08B7002C08B600861A342D352D9D
:100A6800312D061F382D392D762D0330AC0000307E
:100A7800AD000030AE000030AF003908F300380890
:100A8800F2003708F1003608F0000030F7000030B7
:100A9800F6000030F5000A30F4000A128A111E210F
:100AA8000A128A11700883120313AC07710803181D
:100AB800710F5F2D602DAD0772080318720F652D39
:100AC800662DAE0773080318730AAF072F08B9001D
:100AD8002E08B8002D08B7002C08B600061B752D87
:100AE800762D722D02308600061E7B2D7C2DB92DA9
:100AF8000430AC000030AD000030AE000030AF0074
:100B08003908F3003808F2003708F1003608F00019
:100B18000030F7000030F6000030F5000A30F4002D
:100B28000A128A111E210A128A11700883120313ED
:100B3800AC0771080318710FA22DA32DAD07720819
:100B48000318720FA82DA92DAE0773080318730A8E
:100B5800AF072F08B9002E08B8002D08B7002C08D9
:100B6800B600061AB82DB92DB52D861EBC2DBD2D83
:100B7800FA2D0530AC000030AD000030AE0000307A
:100B8800AF003908F3003808F2003708F1003608DA
:100B9800F0000030F7000030F6000030F5000A30B1
:100BA800F4000A128A111E210A128A11700883128F
:100BB8000313AC0771080318710FE32DE42DAD077B
:100BC80072080318720FE92DEA2DAE07730803188F
:100BD800730AAF072F08B9002E08B8002D08B70010
:100BE8002C08B600861AF92DFA2DF62D061FFD2DB4
:100BF800FE2D3B2E0630AC000030AD000030AE00BC
:100C08000030AF003908F3003808F2003708F10067
:100C18003608F0000030F7000030F6000030F5002C
:100C28000A30F4000A128A111E210A128A11700869
:100C380083120313AC0771080318710F242E252E95
:100C4800AD0772080318720F2A2E2B2EAE077308F1
:100C58000318730AAF072F08B9002E08B8002D082B
:100C6800B7002C08B600061B3A2E3B2E372E043050
:100C78008600061E402E412E7E2E0730AC00003026
:100C8800AD000030AE000030AF003908F30038087E
:100C9800F2003708F1003608F0000030F7000030A5
:100CA800F6000030F5000A30F4000A128A111E21FD
:100CB8000A128A11700883120313AC07710803180B
:100CC800710F672E682EAD0772080318720F6D2E0C
:100CD8006E2EAE0773080318730AAF072F08B90002
:100CE8002E08B8002D08B7002C08B600061A7D2E6D
:100CF8007E2E7A2E861E812E822EBF2E0830AC00C4
:100D08000030AD000030AE000030AF003908F3000D
:100D18003808F2003708F1003608F0000030F70014
:100D28000030F6000030F5000A30F4000A128A118B
:100D38001E210A128A11700883120313AC07710866
:100D48000318710FA82EA92EAD0772080318720F89
:100D5800AE2EAF2EAE0773080318730AAF072F081D
:100D6800B9002E08B8002D08B7002C08B600861A5E
:100D7800BE2EBF2EBB2E061FC22EC32E002F09303B
:100D8800AC000030AD000030AE000030AF003908D4
:100D9800F3003808F2003708F1003608F000003098
:100DA800F7000030F6000030F5000A30F4000A12AF
:100DB8008A111E210A128A11700883120313AC07C4
:100DC80071080318710FE92EEA2EAD07720803188F
:100DD800720FEF2EF02EAE0773080318730AAF07D1
:100DE8002F08B9002E08B8002D08B7002C08B60047
:100DF800061BFF2E002FFC2E08308600061E052F2E
:100E0800062F122F0030B9000030B8000030B700AC
:100E18000030B600061A112F122F0E2F861E152F1E
:100E2800162F392F3908F3003808F2003708F10077
:100E38003608F0000030F7000030F6000030F5000A
:100E48000A30F4000A128A111E210A128A11730844
:100E580083120313B9007208B8007108B70070084C
:100E6800B600861A382F392F352F061F3C2F3D2FF5
:100E7800432FC601C701061B422F432F3F2F873040
:100E8800FF007F08AA0000300A128A11B0200A1257
:100E98008A110030F3000030F2000030F1006430B5
:100EA800F000831203133908F7003808F6003708F2
:100EB800F5003608F4000A128A1113220A128A1160
:100EC8007008303EFF007F0883120313AA00013028
:100ED8000A128A11B0200A128A11003083120313F1
:100EE800A3000030A2000030A1000A30A0000030AA
:100EF800F3000030F2000030F1000A30F000390849
:100F0800F7003808F6003708F5003608F4000A122A
:100F18008A1113220A128A11730883120313A70075
:100F28007208A6007108A5007008A4000A128A11A8
:100F380064210A128A11831203132008303EFF002D
:100F48007F08AA0001300A128A11B0200A128A11F9
:100F5800003083120313A3000030A2000030A10068
:100F68000A30A0003908A7003808A6003708A500ED
:100F78003608A4000A128A1164210A128A118312FF
:100F880003132008303EFF007F08AA0001300A1230
:100F98008A11B0200A128A118312031346084704E3
:100FA800031DD72FD82FB12C0130C6000030C70041
:100FB8003608FF007F08F00000300A128A11C520A9
:100FC8000A128A1108000A128A1184200A128A1148
:100FD800C6000A128A1185200A128A11C7008313D3
:100FE8003630840046300A128A1186200A128A1185
:080FF80083010A128A11E02AAC
:08400000FF3FFF3FFF3FFF3FC0
:04400E00E42CFF3F60
:00000001FF
